{
  "contractName": "Voting",
  "abi": [
    {
      "constant": true,
      "inputs": [
        {
          "name": "",
          "type": "uint256"
        }
      ],
      "name": "votes",
      "outputs": [
        {
          "name": "question",
          "type": "string"
        },
        {
          "name": "countYes",
          "type": "uint256"
        },
        {
          "name": "countNo",
          "type": "uint256"
        }
      ],
      "payable": false,
      "stateMutability": "view",
      "type": "function"
    },
    {
      "constant": true,
      "inputs": [
        {
          "name": "",
          "type": "uint256"
        }
      ],
      "name": "voteToOwner",
      "outputs": [
        {
          "name": "",
          "type": "address"
        }
      ],
      "payable": false,
      "stateMutability": "view",
      "type": "function"
    },
    {
      "anonymous": false,
      "inputs": [
        {
          "indexed": false,
          "name": "voteId",
          "type": "uint256"
        },
        {
          "indexed": false,
          "name": "question",
          "type": "string"
        }
      ],
      "name": "VoteAdded",
      "type": "event"
    },
    {
      "constant": false,
      "inputs": [
        {
          "name": "_question",
          "type": "string"
        }
      ],
      "name": "createVote",
      "outputs": [],
      "payable": false,
      "stateMutability": "nonpayable",
      "type": "function"
    }
  ],
  "bytecode": "0x6060604052341561000f57600080fd5b61055b8061001e6000396000f300606060405260043610610057576000357c0100000000000000000000000000000000000000000000000000000000900463ffffffff16806313292a021461005c5780635df813301461008a578063e6ee3e6414610151575b600080fd5b341561006757600080fd5b610088600480803590602001908201803590602001919091929050506101b4565b005b341561009557600080fd5b6100ab6004808035906020019091905050610366565b60405180806020018481526020018381526020018281038252858181546001816001161561010002031660029004815260200191508054600181600116156101000203166002900480156101405780601f1061011557610100808354040283529160200191610140565b820191906000526020600020905b81548152906001019060200180831161012357829003601f168201915b505094505050505060405180910390f35b341561015c57600080fd5b610172600480803590602001909190505061039e565b604051808273ffffffffffffffffffffffffffffffffffffffff1673ffffffffffffffffffffffffffffffffffffffff16815260200191505060405180910390f35b60006001600080548060010182816101cc91906103d1565b9160005260206000209060030201600060606040519081016040528088888080601f01602080910402602001604051908101604052809392919081815260200183838082843782019150505050505081526020016000815260200160008152509091909150600082015181600001908051906020019061024d929190610403565b5060208201518160010155604082015181600201555050039050336001600083815260200190815260200160002060006101000a81548173ffffffffffffffffffffffffffffffffffffffff021916908373ffffffffffffffffffffffffffffffffffffffff160217905550600260003373ffffffffffffffffffffffffffffffffffffffff1673ffffffffffffffffffffffffffffffffffffffff168152602001908152602001600020600081548092919060010191905055507f0ac6ee434e2e22214897d8dcdfce63aaae60241483ea57f3b72b404221b2ceac81848460405180848152602001806020018281038252848482818152602001925080828437820191505094505050505060405180910390a1505050565b60008181548110151561037557fe5b906000526020600020906003020160009150905080600001908060010154908060020154905083565b60016020528060005260406000206000915054906101000a900473ffffffffffffffffffffffffffffffffffffffff1681565b8154818355818115116103fe576003028160030283600052602060002091820191016103fd9190610483565b5b505050565b828054600181600116156101000203166002900490600052602060002090601f016020900481019282601f1061044457805160ff1916838001178555610472565b82800160010185558215610472579182015b82811115610471578251825591602001919060010190610456565b5b50905061047f91906104c2565b5090565b6104bf91905b808211156104bb57600080820160006104a291906104e7565b6001820160009055600282016000905550600301610489565b5090565b90565b6104e491905b808211156104e05760008160009055506001016104c8565b5090565b90565b50805460018160011615610100020316600290046000825580601f1061050d575061052c565b601f01602090049060005260206000209081019061052b91906104c2565b5b505600a165627a7a7230582021abffdf2504f3bd7d4f616be485026b9b30d5ca430353a474bee088bcf92eac0029",
  "source": "pragma solidity ^0.4.17;\r\n\r\ncontract Voting {\r\n\r\n    event VoteAdded(uint voteId, string question);\r\n\r\n    struct Vote {\r\n        string question;\r\n        uint countYes;\r\n        uint countNo;\r\n    }\r\n    \r\n    Vote[] public votes;\r\n\r\n    mapping (uint => address) public voteToOwner;\r\n    mapping (address => uint) ownerVoteCount;\r\n\r\n    function createVote(string _question) external {\r\n        uint voteId = votes.push(Vote(_question, 0, 0)) - 1;\r\n\r\n        voteToOwner[voteId] = msg.sender;\r\n        ownerVoteCount[msg.sender]++;\r\n        VoteAdded(voteId, _question);\r\n    }\r\n\r\n}",
  "sourcePath": "C:\\Users\\pasto\\Documents\\GitHub\\Simple-SmartContract-App\\contracts\\Voting.sol",
  "compiler": {
    "name": "solc",
    "version": "0.4.19+commit.c4cbbb05.Emscripten.clang"
  },
  "schemaVersion": "1.0.1",
  "updatedAt": "2018-02-23T08:15:58.137Z"
}